:100000000C942A000C943F000C943F000C943F0089
:100010000C943F000C943F000C943F000C943F0064
:100020000C943F000C943F000C943F000C943F0054
:100030000C943F000C943F000C943F000C943F0044
:100040000C943F000C943F000C943F000C943F0034
:100050000C943F0011241FBECFE5D8E0DEBFCDBF1A
:1000600010E0A0E6B0E0ECE6F2E002C005900D92F0
:10007000A438B107D9F70E94FF000C9434010C9406
:10008000000084B3846084BB84B3886084BB84B381
:10009000806184BB84B3806284BB81B38F7781BB72
:1000A00081B38F7B81BB81B38F7D81BB81B3877F20
:1000B00081BB82B3806882BB82B3806482BB82B31F
:1000C000806282BB82B3886082BB089587B38F67EA
:1000D00087BB0895CF93DF93CDB7DEB764970FB694
:1000E000F894DEBF0FBECDBF24E1E0E7F0E0DE0113
:1000F000119601900D922A95E1F76AE070E00E9456
:100100000C01FC01EE0FFF1F81E090E08C0F9D1FA2
:10011000E80FF91F808188BB64960FB6F894DEBFA4
:100120000FBECDBFDF91CF91089565E070E08FEFF6
:1001300061C095B39C6395BB95B321E030E0062E7A
:1001400002C0220F331F0A94E2F72095292325BB12
:1001500027E030E049C02430310511F42150310945
:1001600040B350E0022E02C0559547950A94E2F73D
:1001700040FD38C0E3ECF9E03197F1F700C0000032
:1001800040B350E0022E02C0559547950A94E2F71D
:1001900040FD28C02330310599F485E090E0861BAE
:1001A000970B46E050E0421B530B880F991F880FB6
:1001B000991F805A9F4FFC01E40FF51F808112C0E8
:1001C00085E090E0861B970B47E050E0421B530B05
:1001D000880F991F880F991F805A9F4FFC01E40FC9
:1001E000F51F808121503109233031050CF0B3CF48
:1001F00061507109623071050CF09BCF08950E9427
:1002000066000E9441000E9495008F3FE1F390E05C
:10021000C0970E946A00F7CF97FB072E16F4009450
:1002200007D077FD09D00E94200107FC05D03EF4DD
:10023000909581959F4F0895709561957F4F089592
:10024000AA1BBB1B51E107C0AA1FBB1FA617B707FC
:1002500010F0A61BB70B881F991F5A95A9F7809518
:0C0260009095BC01CD010895F894FFCFEB
:10026C003738392F3435362A3132332D3F303D2B48
:10027C003F0006005B004F0066006D007D0007002C
:04028C007F006F0080
:00000001FF
