:100000000C942A000C9434000C9434000C943400AA
:100010000C9434000C9434000C9434000C94340090
:100020000C9434000C9434000C9434000C94340080
:100030000C9434000C9434000C9434000C94340070
:100040000C9434000C9434000C9434000C94340060
:100050000C94340011241FBECFE5D8E0DEBFCDBF25
:100060000E9446000C944B000C9400008CEF8ABB5D
:1000700083EF8BBB0895C89903C08BB384608BBB9F
:10008000C99903C08BB38B7F8BBB08950E94360048
:0A0090000E943B00FDCFF894FFCF63
:00000001FF
