S015000046696E616C2050726F6A6563742E737265632E
S11300000C942A000C943F000C943F000C943F0085
S11300100C943F000C943F000C943F000C943F0060
S11300200C943F000C943F000C943F000C943F0050
S11300300C943F000C943F000C943F000C943F0040
S11300400C943F000C943F000C943F000C943F0030
S11300500C943F0011241FBECFE5D8E0DEBFCDBF16
S113006010E0A0E6B0E0ECEAF5E002C005900D92E5
S1130070AA37B107D9F70E94B2010C94D4020C94A8
S113008000008AB380618ABB8AB380628ABB8AB368
S113009080648ABB87B3806887BB089590E02FC0D3
S11300A080FF16C0911104C028B3206828BB25C066
S11300B0913021F42BB320642BBB1FC0923021F468
S11300C02BB320622BBB19C02BB320612BBB15C0F3
S11300D0911104C028B32F7728BB0FC0913021F4AD
S11300E02BB32F7B2BBB09C0923021F42BB32F7D74
S11300F02BBB03C02BB32F7E2BBB9F5F8695943005
S113010078F2089584B3846084BB84B3886084BB2C
S113011084B3806184BB84B3806284BB81B38F77F2
S113012081BB81B38F7B81BB81B38F7D81BB81B365
S1130130877F81BB82B3806882BB82B3806482BBC9
S113014082B3806282BB82B3886082BB089565E01B
S113015070E08FEF61C095B39C6395BB95B321E0CC
S113016030E0062E02C0220F331F0A94E2F72095D6
S1130170292325BB27E030E049C02430310511F4A0
S11301802150310940B350E0022E02C055954795E5
S11301900A94E2F740FD38C0E3ECF9E03197F1F757
S11301A000C0000040B350E0022E02C055954795B0
S11301B00A94E2F740FD28C02330310599F485E024
S11301C090E0861B970B46E050E0421B530B880FD0
S11301D0991F880F991F805A9F4FFC01E40FF51F48
S11301E0808112C085E090E0861B970B47E050E0C9
S11301F0421B530B880F991F880F991F805A9F4FDA
S1130200FC01E40FF51F80812150310923303105B1
S11302100CF0B3CF61507109623071050CF09BCFC3
S11302208D3339F08B3229F090ED980F9A3008F025
S11302308FEF08958BB388608BBB08958BB3877F52
S11302408BBB0895982F9870292F30E0220F331F0D
S11302508770282B88B3282B28BB8BB384608BBB77
S11302608FE99FE00197F1F700C000008BB38B7F0B
S11302708BBB0895CF93C82F0E941E0188B3887E3C
S113028088BB8C2F82958F700E94220188B3887E50
S113029088BB8C2F8F700E9422018FE19EE401970E
S11302A0F1F700C00000CF9108958AB388608ABB3B
S11302B08AB384608ABB87B3816087BB87B382605B
S11302C087BB87B3846087BB87B3806187BB8FE5B7
S11302D09AEE0197F1F700C0000082E00E943A0113
S11302E088E20E943A018EE00E943A0181E00E9475
S11302F03A0180E80E943A010895CF93C82F0E94E2
S11303001A0188B3887E88BB8C2F82958F700E94D7
S1130310220188B3887E88BB8C2F8F700E942201B3
S11303208FE19EE40197F1F700C00000CF9108959A
S11303300F931F93CF93DF938C01C0E0D0E003C0F1
S11303400E947D012196F801EC0FFD1F808181112F
S1130350F7CFDF91CF911F910F91089581E00E9413
S11303603A010895CF92DF92EF92FF920F931F9379
S1130370CF93DF93CDB7DEB7E0970FB6F894DEBF27
S11303800FBECDBF0E9482000E945501FE0131962E
S113039080E2DF011D928A95E9F7B09680E1DF01E2
S11303A01D928A95E9F78FEF89A3F12CE12CC12CDA
S11303B0D12C0E94A700182FFF20A1F18F3F09F133
S11303C08D33F9F08B32E9F00E947D01BFEF27E80D
S11303D033E1B15020403040E1F700C00000812FEC
S11303E090E0C0978C0D9D1D8C01000F111F880F8C
S11303F0991F880F991F880F991F6801C80ED91E6D
S1130400D8CF1D33B1F60E94AE018FEF97E8A3E178
S113041081509040A040E1F700C0000080E090E0EF
S1130420F12C69C08F3F71F18D3361F18B3251F141
S11304300E947D01BFEF27E833E1B15020403040F6
S1130440E1F700C00000EE2DF0E0812F90E0C097AE
S1130450EE0FFF1FA1E0B0E0AC0FBD1FEA0FFB1FC2
S113046020813181820F931F9C01220F331F880F3B
S1130470991F880F991F880F991F820F931F9183CB
S1130480808397CF1B3271F484E10E943A01E39494
S1130490BFEF27E833E1B15020403040E1F700C01E
S11304A0000087CF1D3309F084CF0E94AE018FEF87
S11304B097E8A3E181509040A040E1F700C000001C
S11304C0E394FF24F39475CFFC01EE0FFF1F21E0AA
S11304D030E02C0F3D1FE20FF31F20813181C21643
S11304E0D30641F4E1E2F0E0EC0FFD1FEF0DF11D46
S11304F08083F39401962E2D30E08217930724F322
S1130500FF2009F10E94B8020E94410010E0812FEF
S11305106F2D0E94C802E1E2F0E0EC0FFD1FE90F2D
S1130520F11D0081802F0E94BC02802F0E944E008A
S11305303FEF83ED90E3315080409040E1F700C0FD
S113054000001F5FE4CF80E790E00E94980180E004
S113055090E0E0960FB6F894DEBF0FBECDBFDF91FA
S1130560CF911F910F91FF90EF90DF90CF9008955E
S113057087B3876187BB0895883010F488BB0895DA
S1130580883019F480E188BB089581E188BB08951F
S1130590991B79E004C0991F961708F0961B881FD1
S10F05A07A95C9F780950895F894FFCF70
S11305AC3738392F3435362A3132332D3F303D2B01
S10D05BC4E4F5420464F554E4400A4
S9030000FC
