S014000041737369676E6D656E7420332E73726563A4
S11300000C942A000C9434000C947A000C94340060
S11300100C9434000C9434000C9434000C9434008C
S11300200C9434000C9434000C9434000C9434007C
S11300300C9434000C9434000C9434000C9434006C
S11300400C9434000C9434000C9434000C9434005C
S11300500C94340011241FBECFE5D8E0DEBFCDBF21
S11300600E949E000C94A9000C94000082B3806846
S113007082BB85B7886085BF85B78B7F85BF8BB70B
S113008080688BBF089580E090E016C02FEF28BBF6
S11300902FE936E841E0215030404040E1F700C00C
S11300A0000018BA2FE936E841E0215030404040C2
S11300B0E1F700C000000196853091053CF30895F6
S11300C080E090E013C021E030E0082E02C0220F4F
S11300D0331F0A94E2F728BB2FE936E841E02150A8
S11300E030404040E1F700C00000019684309105A3
S11300F054F308951F920F920FB60F9211242F9369
S11301003F934F935F936F937F938F939F93AF939B
S1130110BF93EF93FF930E944300FF91EF91BF9130
S1130120AF919F918F917F916F915F914F913F918B
S11301302F910F900FBE0F901F9018958FEF87BBD4
S113014081B38F7781BB0E94360078940E9460004F
S1090150FDCFF894FFCF7F
S9030000FC
